:020000040800F2
:10000000F8270020990100085B4000084F320008E3
:10001000594000088F0200086761000800000000D6
:1000200000000000000000000000000001010008C6
:10003000450300080000000045010008BD45000818
:10004000B3010008B3010008B3010008B3010008C0
:10005000B3010008B3010008B3010008B3010008B0
:10006000B3010008B3010008B3010008B3010008A0
:10007000B3010008B3010008B3010008B301000890
:10008000B3010008B3010008B3010008B301000880
:10009000F1600008B3010008B3010008B3010008D3
:1000A000B301000891460008B3010008B30100083D
:1000B000B3010008B3010008B30100085D32000875
:1000C00051320008B3010008B3010008B301000871
:1000D000B3010008FD4D0008B3010008B30100089A
:1000E000B3010008B3010008B3010008DFF80CD029
:1000F00000F090F800480047A9610008F8270020A8
:10010000224B19680868B0E8F00F80F30988BFF344
:100110006F8F4FF0000080F311884EF00D0E704786
:100120000000000006480068006880F3088862B696
:1001300061B6BFF34F8FBFF36F8F00DF00BF00BF0B
:1001400008ED00E0EFF30980BFF36F8F0F4B1A68E3
:1001500020E9F00F106008B54FF0500080F31188CF
:10016000BFF34F8FBFF36F8F06F012FC4FF000000C
:1001700080F31188BDE8084019680868B0E8F00FFE
:1001800080F30988BFF36F8F704700BF8C00002099
:10019000EFF3058070470000064880470648004797
:1001A000FEE7FEE7FEE7FEE7FEE7FEE7FEE7FEE727
:1001B000FEE7FEE749460008ED00000840EA0103BB
:1001C0009B0703D009E008C9121F08C0042AFAD20D
:1001D00003E011F8013B00F8013B521EF9D27047D1
:1001E000D2B201E000F8012B491EFBD27047002279
:1001F000F6E710B513460A4604461946FFF7F0FF26
:10020000204610BD421C10F8011B0029FBD1801AAA
:1002100070470000064C074D06E0E06840F001031F
:1002200094E8070098471034AC42F6D3FFF762FF1A
:10023000606D0008806D000870B58C1810F8015BC7
:1002400015F0070301D110F8013B2A1106D110F86F
:10025000012B03E010F8016B01F8016B5B1EF9D173
:100260002B0705D40023521E0DD401F8013BFAE7F9
:1002700010F8013BCB1A921C03E013F8015B01F864
:10028000015B521EF9D5A142D8D3002070BDFEE714
:10029000002070470020704710B50022044905482F
:1002A00004F0A4FE0449034804F09AFE002010BDA7
:1002B000E012002044050020F80E002070B5134C19
:1002C00005460868606000F069FAA168401AB0F558
:1002D0007A7F0DD90020207002460D49606805E044
:1002E0002378AE5CCE545B1C2370521C8242F7D341
:1002F0002946084804F074FE064804F055FE012023
:10030000607000F04BFAA060002070BD600000201B
:10031000940E002044050020094A10B5D2F8B822F6
:10032000D2F814220AB1012010BD0A460146044841
:1003300004F05CFEBDE81040014804F0B5BE0000CA
:10034000440500207047704710B590F82110002434
:10035000022903D00421816301243DE001680A6879
:1003600022F00E020A6001680A6822F001020A60A7
:100370001A4A0168914201D1012121E0174A143241
:10038000914201D110211BE0144A2832914201D13F
:10039000891515E0114A3C32914201D189140FE0D0
:1003A0000E4A5032914202D14FF4803108E00B4A9C
:1003B0006432914202D14FF4801101E04FF080711C
:1003C000064A083A5160012180F82110002180F886
:1003D0002010416B01B18847204610BD0800024043
:1003E00090F821007047000070B5044600F0D6F97F
:1003F0000546601C02D004480078044400F0CEF9A1
:10040000401BA042FAD370BD7C0000202DE9F84FBC
:100410000026DFF89CB20D460446B14658450FD081
:10042000A44884420CD0A448844209D0A348844202
:1004300006D0A348844203D0BD21A2A005F0B3FE9C
:1004400028680104090C01D0000C03D0BE219DA036
:1004500005F0A9FE6868DFF8A8A200281ED00128D0
:10046000FCD01128FAD00228F8D01228F6D0504536
:10047000F4D0A4498842F1D0A3498842EED0A349E0
:100480008842EBD0A2498842E8D0A2498842E5D010
:100490000328E3D0BF218BA005F085FE00E10120F9
:1004A00000FA06F807EA080747456FD15C450FD008
:1004B000804884420CD08048844209D07F488442DE
:1004C00006D07F48844203D0CD217EA005F06BFE8C
:1004D0006868A0EB0A02504559D00EDC032875D09D
:1004E00006DC002853D0012819D0022869D131E058
:1004F000112821D0122864D13AE0B2F5881F46D0E5
:1005000006DCB2F5803F42D0B2F5801F59D13EE003
:10051000B2F5001F3BD0B2F5041F52D137E0E868B6
:10052000022807D0012805D0032803D0D52165A0D3
:1005300005F039FEE8683EE0E868022807D00128A7
:1005400005D0032803D0DC215EA005F02CFEE8686E
:10055000001D30E0E868022807D0012805D00328F4
:1005600003D0E32157A005F01EFEE868083022E022
:10057000E868022807D0012805D0032803D0EA2123
:1005800050A005F010FEE8680C3014E087E0A86881
:1005900080B1012811D0022807D0F72149A005F029
:1005A00002FEA86830B1012807D04FF00809C4F84E
:1005B000148006E00420814603E04FF00809C4F8E7
:1005C0001080FF2F05D8214605E0FFE74FF000001F
:1005D000F1E704F104014FEA860001D9A0F12000FF
:1005E0000B684FF00F0202FA00FC23EA0C0309FA31
:1005F00000FC43EA0C030B606868C0004FD5464816
:10060000816941F001018161806926F0030100F0F8
:100610000100009041480B189868B1074FEA117C1F
:1006200002FA0CF290435C4501D100210FE0214910
:100630008C4201D101210AE01F498C4201D10221E3
:1006400005E01E498C4201D1032100E0042101FA9A
:100650000CF1014399606868C0033148016801D515
:10066000394300E0B9430160686880032D480168A0
:1006700001D5394300E0B94301606868C0022A48E7
:10068000016801D5394300E0B94301606868800220
:100690002648016801D5394300E0B9430160761C62
:1006A0002F6837FA06F07FF4FAAEBDE8F88F000045
:1006B00000080140000C01400010014000140140FE
:1006C000001801402E2E2F447269766572732F53E5
:1006D000544D3332463178785F48414C5F447269FB
:1006E0007665722F5372632F73746D33326631786F
:1006F000785F68616C5F6770696F2E63000000004F
:100700000000111000002110000031100000121034
:1007100000002210000032100010024000000140D2
:100720000004014004040140080401400C0401409D
:1007300070B515460C00064604D14FF4EA7108A0C6
:1007400005F031FD45B1012D04D040F2D51104A0D2
:1007500005F029FD346170BD2004306170BD0000DA
:100760002E2E2F447269766572732F53544D333297
:10077000463178785F48414C5F4472697665722FE4
:100780005372632F73746D3332663178785F6861AA
:100790006C5F6770696F2E6300000000014880681D
:1007A000704700007C000020704770472DE9F04141
:1007B00004460068416946680025CF43F9050BD41B
:1007C000F143C90508D46FF48071012541612068A7
:1007D000016841F400410160B80508D4F043C00548
:1007E00005D421686FF4007045F002054861780572
:1007F00027D4F043C00524D494F83E30628D94F899
:100800003D00216B202B08D13AB9212810D029288E
:100810000ED0282801D121290AD021686FF48060E8
:10082000486194F83E0045F00405102804D008E023
:10083000204603F029F904E02068016841F40071C2
:100840000160380508D4F043C00505D421686FF471
:10085000006045F008054861002D07D0206C284352
:1008600020642046BDE8F04102F03EBDBDE8F081C5
:100870002DE9F041026800245168C56A90F83E30C5
:1008800090F83D60102B1CD0402B1AD0036C002B2D
:100890007ED053694FF02805DB439F0779D4CF43BF
:1008A000BF0576D4016C01B1946990F83D30002108
:1008B0009D430B467FD0C91E516180F83C30BDE896
:1008C000F081946953694FF42A07DB435FEAC37CE4
:1008D0004FF02A4604D0BD42F1D0B542EFD010E02F
:1008E000CD43AD050DD4C16AB94201D1012103E068
:1008F000C16AB14201D10821C162BDE8F04103F0F3
:100900007BB81D0716D4CD43AD0513D4416CC9B2D5
:100910001161416B11B9826B002AD0D0896A19B973
:10092000816B896A0029CAD00068416841F400617E
:100930004160C4E79D0706D4CD43AD0503D4BDE8AF
:10094000F04102F0ADBFE443526864074FEA02523F
:1009500015D4002AB3DB1A0608D4CA43520505D4BD
:100960005A0705D5BDE8F04102F018BF5A07A6D4D2
:10097000C9438905A3D4BDE8F04102F0CDBE002AE9
:100980009DDB5A060CD4CA43520509D45A0702E02B
:100990000FE023E00FE005D5BDE8F04102F0C4BD53
:1009A0005A078CD4C943890589D4BDE8F04102F0C7
:1009B00052BD94696DE7556825F480655560E24342
:1009C000540700D50121120601D5828900E0028B6F
:1009D00080F83C3092B2FFF7E8FE70E7DC0606D400
:1009E000CC43A40503D4BDE8F04103F08FB8212E19
:1009F00027D0292E25D05C0655D4CC43640552D48B
:100A00005B0752D590F83D10438D002B91D01269B1
:100A1000436A1A70426A521C4262428D521E4285DB
:100A2000428D002A85D12A29D7D101684A6822F44B
:100A300080624A602221016380F83D5000F008FC8A
:100A40003DE71C0623D4CC43640520D45B0720D5A6
:100A500090F83D10438D002BBFD0436A1B78136183
:100A6000426A521C4262428D521E4285428D002AC9
:100A7000B3D12929B1D101684A6822F480624A6061
:100A80002121016380F83D5000F0E3FB17E75B078D
:100A9000A3D4C9438905A0D4418D00299DD0416AC2
:100AA000097811610AE05B0797D4C943890594D49A
:100AB000418D002991D01169426A1170416A491C27
:100AC0004162418D491E4185F9E6704770B50400C9
:100AD00074D084492068884207D08349884204D072
:100AE00040F2CD1181A005F05EFB60688D49401E8B
:100AF000884204D94FF4E7717CA005F054FBA0684C
:100B00004FF4804530B1A84204D040F2CF1177A015
:100B100005F049FBE068800A04D04FF4E87173A047
:100B200005F041FB2069A84207D0B0F5404F04D042
:100B300040F2D1116DA005F036FB606930B101289B
:100B400004D04FF4E97169A005F02DFBA06930F0E5
:100B5000FE0004D040F2D31164A005F024FBE0694C
:100B600030B1402804D04FF4EA7160A005F01BFBBF
:100B7000206A30B1802804D040F2D5115BA005F086
:100B800012FB94F83D00002520B984F83C50204623
:100B900000F020FB242084F83D002068016821F04B
:100BA0000101016001F066F95F4A6168914202D873
:100BB0005E4901E002E05E49884201D2012070BD39
:100BC0005C492368B0FBF1F15E6826F03F060E43F6
:100BD0005E606368934206D94FF4967359434FF4AD
:100BE0007A73B1FBF3F12368491C1E6A26F03F06B5
:100BF000314319626168914210D84900401EB0FB30
:100C0000F1F2521CC2F30B02042A01D2042023E0A9
:100C1000B0FBF1F0401CC0F30B001DE0A368EBB388
:100C200001EBC10202EB0116421EB2FBF6F2521CAE
:100C300042F4804212054AD08BB301EBC10202EBB1
:100C40000111401EB0FBF1F0401CC0F30B0040F45A
:100C5000804000BF40F400402168CA694CF6FF7331
:100C60009A431043C861D4E90701084321680A6820
:100C700022F0C00210430860D4E903100843216841
:100C80008A6848F2FF339A4310438860D4E905012B
:100C900008432168CA6822F0FF0201E010E018E072
:100CA0001043C8602068016841F0010101602564BB
:100CB000202084F83D00256384F83E50002070BD5C
:100CC00001EB4106421EB2FBF6F2521CB2E70120D4
:100CD000C2E701EB4101401EB0FBF1F0401CC0F344
:100CE0000B00B7E700540040005800402E2E2F4460
:100CF0007269766572732F53544D3332463178786A
:100D00005F48414C5F4472697665722F5372632F5E
:100D100073746D3332663178785F68616C5F693205
:100D2000632E63007F1A0600A086010080841E00E7
:100D300000093D0040420F002DE9FF4F81B0894678
:100D40000446FFF72BFD054694F83D004FF00108DF
:100D500020287AD1192301224B492046009502F020
:100D6000A9FF002871D194F83C0001286DD0012022
:100D700084F83C0020680168C90703D1016841F08C
:100D8000010101602068016821F4006101602420F4
:100D900084F83D00002626643C48E0624FF0011BC9
:100DA00020272068016841F48071016000950022CD
:100DB00059462046049B02F07DFF002856D1216849
:100DC00009F0FE000861FFF7E9FC21680546486963
:100DD0004969C0F34000C1F380214FF0A00A0FE041
:100DE000FFF7DCFC411B0498814200D808B984F865
:100DF0003DA0216848694969C0F34000C1F38021E2
:100E000094F83D20A02A02D008B90029E8D084F83F
:100E10003D7020684169C943890717D4016841F4CE
:100E20000071016020684169806919230122164917
:100E30002046009502F03EFFC0B984F83D7084F86A
:100E40003C60002005B0BDE8F08F1BE0016841F474
:100E50000071016021686FF48060486119230122EC
:100E600009492046009502F025FF08B10120E9E775
:100E7000039808F10108804593D384F83D7084F805
:100E80003C60F3E70220DDE7020010000000FFFFF6
:100E900070477047704700002DE9F84F1F46904695
:100EA0008A460446DDF82890FFF778FC054694F85A
:100EB0003D00202879D11923012277492046009549
:100EC00002F0F8FE0028F5D194F83C0001286CD01F
:100ED000012084F83C0020680168C90703D101683B
:100EE00041F0010101602068016821F400610160A6
:100EF000222084F83D00102084F83E00002626645D
:100F0000C4F824806785608D20856448E0622B46A4
:100F10004A465146204602F050FB00287ED1208DE3
:100F20005F4F68B1012814D00228206801681ED0E4
:100F300041F48061016020684169806900909DE012
:100F40002068416981690091016841F40071016084
:100F500094E02068016821F48061016072B6206825
:100F6000416981690091016841F400710AE041F42E
:100F70000061016072B62068416981690091016871
:100F800021F48061016062B678E0032850D801281E
:100F90000CD002284B464FF00002394620460095FF
:100FA0000FD002F087FEC8BB10E073E02A46494626
:100FB000204602F0FEFE88BB20680069616A087066
:100FC00053E002F077FE48BB72B61AE02068016871
:100FD00021F48061016072B620680069616A08705E
:100FE000606A401C6062208D401E2085608D401E1E
:100FF00060854B46002239462046009502F05AFE95
:1010000060B92068016841F40071016020680069DE
:10101000616A0870606A401C606200E00EE0218D29
:10102000491E2185618D491E618562B621681AE0DD
:101030002A464946204602F0BCFE10B10120BDE818
:10104000F88F20680069616A0870606A401C6062FD
:10105000218D491E2185618D491E618521684A695E
:10106000D24352070AD409690170606A401C606269
:10107000208D401E2085608D401E6085208D0028BB
:1010800083D1202084F83D0084F83E6084F83C60E1
:101090000020D4E70220D2E7020010000000FFFF8A
:1010A000040001002DE9F84F1F4690468A46044689
:1010B000DDF82890FFF772FB054694F83D002028E4
:1010C0007FD11923012240492046009502F0F2FD0C
:1010D000002876D194F83C00012872D0012084F8D1
:1010E0003C0020680168C90703D1016841F0010193
:1010F00001602068016821F400610160212084F80A
:101100003D00102084F83E0000262664C4F82480A8
:101110006785608D20852D48E0622B464A46514602
:10112000204602F0B5FA90B92068416980690090C4
:1011300036E02A464946204602F06EFE50B1206C49
:10114000042804D12068016841F400710160012085
:10115000BDE8F88F606A216800780861606A401C09
:101160006062618D491E6185218D491E89B221858C
:1011700022685369DB435B070BD451B100781061DF
:10118000606A401C6062608D401E6085208D401E3C
:1011900020852A464946204602F066FD0028CED129
:1011A000208D0028C5D154F83D0B016841F4007131
:1011B0000160202004F81E09E67766770020C7E763
:1011C000FFE70220C4E70000020010000000FFFF5C
:1011D0007047704710B586B00021009101910291CF
:1011E00003910068174988422AD1174CA06940F042
:1011F0000800A061A069694600F008000490C020C2
:10120000009012200190032003901048FFF7FEF891
:10121000E06940F40010E061E069002200F4001091
:10122000049005211F2000F0BFF81F2000F08AF86D
:1012300000220521202000F0B7F8202000F082F8DD
:1012400006B010BD0054004000100240000C0140E8
:101250007047704702488168027811448160704786
:101260007C000020074810B5016841F010010160C2
:10127000032000F0E9F8002000F006F800F03EF846
:10128000002010BD0020024000B5014687B00022BA
:10129000192000F089F8192000F054F813488169EA
:1012A00041F400618161806905A900F40060069045
:1012B000684600F095FD00F0EDFD0D490D4AB0FBCC
:1012C000F1F10D48491E0260416040F2E732002111
:1012D000C0E90321816001F0E3F810B1012007B0FB
:1012E00000BD054801F064F9F9E700000010024074
:1012F00040420F00002C0140C81600200F4808B5DE
:10130000816941F001018161816901F00101009170
:10131000C16941F08051C161C069002200F0805074
:1013200000900F21901E00F03FF80548416821F021
:10133000E06141F00071416008BD00000010024012
:101340000000014010B5040003D5BE2107A004F041
:101350002AFF002C09DB04F01F01012088406109ED
:10136000890001F1E021C1F8000110BD2E2E2F44AB
:101370007269766572732F53544D333246317878E3
:101380005F48414C5F4472697665722F5372632FD8
:1013900073746D3332663178785F68616C5F636F48
:1013A000727465782E63000070B515460C460646CB
:1013B000102A03D3AA2114A004F0F5FE102C03D3A5
:1013C000AB2111A004F0EFFE1E480068C0F3022319
:1013D000C3F107022046042A00D90422191D072957
:1013E00001D2002300E0DB1E012404FA02F1491EB1
:1013F000014099409C40641E2C4021433046BDE88A
:10140000704004F0B1BE00002E2E2F447269766544
:1014100072732F53544D3332463178785F48414CC4
:101420005F4472697665722F5372632F73746D33E4
:1014300032663178785F68616C5F636F727465786B
:101440002E6300000CED00E010B5044607280BD019
:10145000062C09D0052C07D0042C05D0032C03D072
:10146000922108A004F09FFE154904F007020868C5
:101470004FF6FF03184040EA0220124A104308606A
:1014800010BD00002E2E2F447269766572732F53A3
:10149000544D3332463178785F48414C5F4472692D
:1014A0007665722F5372632F73746D3332663178A1
:1014B000785F68616C5F636F727465782E6300009B
:1014C0000CED00E00000FA0510B50C0605D501F0A2
:1014D000070100EB4110283003E000EB411000F55C
:1014E000947099B232B1012202730181190C4181C9
:1014F000002010BD00220273C180F9E7704700EBA5
:101500004112D0F86802D26B03F07DBF00EB4112AC
:10151000D0F86802D2F83C2103F0D8BF70B5044679
:101520000B0601F0070004EB40114FF001024FF0F1
:10153000000503D581F82920283103E081F82951DD
:1015400001F59471087094F82802012808D084F8F5
:101550002822206804F0FFFB84F82852002070BD88
:10156000022070BD70B5044601F00F006268904221
:1015700001D9012070BD0B0601F0070004EB4011FA
:101580004FF001024FF0000503D581F829202831E2
:1015900003E081F8295101F594718D70087094F879
:1015A0002802012808D084F82822206804F076FC5C
:1015B00084F82852002070BD022070BD01F00701A0
:1015C00000EB4110D0F8440170472DE9F04104468A
:1015D0000F0601F0070004EB40114FF001064FF039
:1015E000000503D581F82960283103E081F82951ED
:1015F00001F5947108700A61CB704A7802B1C88114
:10160000022B00D10D7194F82802012809D084F82A
:101610002862206804F06AFA284684F82852BDE857
:10162000F0810220FBE770B50C4601F0070500EBE6
:101630004511C1E94F230022C1F8442181F8292135
:1016400081F8285101F594716207006804F07BFC71
:10165000002070BD70B504460D4601F007006168BA
:10166000884201D9012070BD29064FF000064FF0D5
:10167000010205D504EB401181F82920283105E04D
:1016800004EB451181F8296101F594718A700870A5
:1016900094F82802012807D084F82822206804F052
:1016A00039FC680702D006E0022070BD04F50C7119
:1016B000206804F0F1FB84F82862002070BD70B54A
:1016C0000C4601F0070500EB4511C1E90F2300228C
:1016D0004A64012281F8292001F8285F6207006826
:1016E00004F031FC002070BD10B50446006804F021
:1016F00005FD000402D5204602F0B0FC206804F08D
:10170000FDFC40050CD5206830F8441F21F48061B1
:101710000180204600F022F90021204600F039F92E
:10172000206804F0EBFC400405D5206830F8441F25
:1017300021F480410180206804F0E0FC800405D59C
:10174000206830F8441F21F400510180206804F023
:10175000D5FCC00414D5206830F8401F21F00401E6
:101760000180206830F8401F21F0080101802046E8
:1017700000F007F9206830F8441F21F480510180FF
:10178000206804F0BBFC00051FD5206830F8401F1E
:1017900041F008010180206830F8441F21F4006105
:1017A0000180206830F8401F41F00401018020686A
:1017B00004F0A4FCC00405D5206830F8441F21F4CF
:1017C00080510180204600F019F9206804F096FC51
:1017D000800508D5206830F8441F21F4007101808D
:1017E000204600F0D2F8206804F088FCC00505D53A
:1017F000206830F8441F21F48071018010BD000082
:101800002DE9F04186B004000CD0364920688842AA
:1018100003D08C2134A004F0C6FC94F829020025E2
:1018200020B108E0012006B0BDE8F08184F828521C
:10183000204600F075F8032084F82902206804F09F
:1018400024FB04F11001142288466846FEF7B6FC1A
:1018500094E80F0004F07DFA0227B0BB0021206855
:1018600004F066FC002001260DE000BF04EB4011EF
:1018700081F8296001F8280FC881CD700D614D6194
:10188000401CC0B28D6161688142EFD800200FE03A
:1018900004EB401181F8295181F8280181F82B517E
:1018A000C1F83851C1F83C51401CC0B2C1F8405198
:1018B00061688142ECD8142241466846FEF77EFCFE
:1018C00094E80F0004F0D2FA10B184F82972A9E765
:1018D00084F8245084F82962206804F0C5FA0020B6
:1018E000A1E70000005C00402E2E2F44726976654F
:1018F00072732F53544D3332463178785F48414CE0
:101900005F4472697665722F5372632F73746D33FF
:1019100032663178785F68616C5F7063642E630053
:1019200008B500680B49884212D10B48C16941F4DF
:101930000001C161C069002200F40000009005218F
:101940001420FFF731FDBDE808401420FFF7FABC72
:1019500008BD0000005C00400010024070B5044665
:1019600080680125022801D0FEF7EDFC2946D4F855
:10197000680203F092FED4F86802BDE8704003F0FC
:101980004EBED0F8680203F072BED0F8680203F0D1
:1019900078BE10B5044690F8280201280BD001202B
:1019A00084F8280284F82410206804F0C3FB002087
:1019B00084F8280210BD022010BDD0F8682200F57E
:1019C0000C71104603F075BE10B5044690F828025D
:1019D000012810D0012084F8280201462046FFF794
:1019E0008DFD206804F03EFA206804F07AFB0020A8
:1019F00084F8280210BD022010BD000010B5044676
:101A0000D0F8680203F094FEA069002804D00348CF
:101A1000016841F00601016010BD000010ED00E01A
:101A20002DE9F84304460068504DC1070AD18107EB
:101A30006FD4C0067ED46C214DA004F0B4FB207896
:101A4000C00763D0606860B1B0F5807F09D0B0F5A1
:101A5000007F06D0B0F5407F03D0722144A004F08F
:101A6000A2FBE8690026C00008D4E86940F0805075
:101A7000E861E869012600F0805000904B48016859
:101A8000C90512D40168804641F480710160FEF7F7
:101A900085FE074605E000BFFEF780FEC01B6428F8
:101AA00023D8D8F80000C005F6D5286A10F4407095
:101AB00021D0A18801F4407181421CD0286A3C49A0
:101AC000012220F440700A6000220A602862C007E8
:101AD00011D0FEF763FE074641F2883808E000BFE8
:101AE000FEF75CFEC11B414502D90320BDE8F88327
:101AF000286A8007F4D5286A616820F4407008439A
:101B000028621EB1E86920F08050E86120788007E3
:101B100016D5A06860B1B0F5804F09D0B0F5004F80
:101B200006D0B0F5404F03D0B92111A004F03BFB23
:101B3000686800E007E0A16820F44040084368605E
:101B40002078C0060FD5E068B0F5800F05D020B131
:101B500040F2151106A004F026FB6868E16820F445
:101B60008000084368600020C0E7000000100240C9
:101B70002E2E2F447269766572732F53544D333273
:101B8000463178785F48414C5F4472697665722FC0
:101B90005372632F73746D3332663178785F686186
:101BA0006C5F7263635F65782E63000000700040B5
:101BB000400442422DE9F0470F46050078D02868DE
:101BC000C1070AD1810708D4410706D4000704D40D
:101BD0004FF44E716FA004F0E6FA47B1012F06D022
:101BE000022F04D040F239316AA004F0DCFA774EBB
:101BF000306800F00700B84209D2306820F00700D2
:101C000038433060306800F00700B84277D1286868
:101C10006F4C810729D5400703D5606840F4E06028
:101C200060602878000703D5606840F46050606009
:101C3000A868A0B1802812D0902810D0A0280ED07B
:101C4000B0280CD0C0280AD0D02808D0E02806D070
:101C5000F02804D040F25F314EA004F0A4FA60688E
:101C6000A96820F0F000084360602878C00737D0EA
:101C7000686868B101281CD002281DD040F2663186
:101C800044A004F090FA6868012812D0022813D00A
:101C900020688007002832DA6068696820F0030055
:101CA00008436060FEF77AFD804641F2883910E013
:101CB00025E020688003EDE720688001EAE700BFA7
:101CC000FEF76CFDA0EB0801494502D90320BDE8F1
:101CD000F0876068696800F00C00B0EB810FEFD10D
:101CE000306800F00700B8420BD9306820F00700D8
:101CF00038433060306800F00700B84201D001205E
:101D0000E5E728784FF4806640074FF4A0674FF46A
:101D1000C0684FF4E06914D5E86860B1B0420AD0F9
:101D2000B84208D0404506D0484504D04FF4697108
:101D300018A004F038FA6068E96820F4E06008430D
:101D400060602878000715D5286960B1B0420AD0D4
:101D5000B84208D0404506D0484504D040F2AB31E7
:101D60000CA004F020FA6068296920F4605040EA71
:101D7000C100606000F09EF86168164AC1F303116B
:101D8000515CC8401449086014480068FFF77CFAA9
:101D900000209CE72E2E2F447269766572732F53B4
:101DA000544D3332463178785F48414C5F44726914
:101DB0007665722F5372632F73746D333266317888
:101DC000785F68616C5F7263632E6300002002407D
:101DD00000100240246D00088800002080000020D0
:101DE00070B50D46040004D140F2235111A004F057
:101DF000DAF925B940F224510EA004F0D4F90F20ED
:101E000020601A48416801F003016160416801F0F7
:101E1000F001A160416801F4E061E16040684FF4C5
:101E2000E06101EAD00020611148006800F007007D
:101E3000286070BD2E2E2F447269766572732F5301
:101E4000544D3332463178785F48414C5F44726973
:101E50007665722F5372632F73746D3332663178E7
:101E6000785F68616C5F7263632E630000100240EC
:101E7000002002400448054900684968044AC1F34B
:101E80000221515CC84070478800002000100240C9
:101E9000346D00080448054900684968044AC1F3E4
:101EA000C221515CC84070478800002000100240E9
:101EB000346D000812A185B00FC98DE80F0014A081
:101EC000144A006804905168134801F00C03042B75
:101ED00010D0082B0ED1C1F38343C9031DF80300B2
:101EE0000AD5516804AAC1F34041515C0A4A5043E3
:101EF000B0FBF1F005B0704708494843FAE700002D
:101F000002030405060708090A0B0C0D0E0F10103A
:101F1000010200000010024000127A0000093D009A
:101F20002DE9F84F04007DD0FA4EFB4D20684FF0AC
:101F3000010A4FF000084FF4803960B1C1070DD19C
:101F4000810762D401076ED440076DD440F2671157
:101F5000F2A004F028F92078C00753D060684FF44D
:101F6000A02740B1484506D0B84204D040F26D11D8
:101F7000EAA004F018F96868C0F38100012807D0CE
:101F80006868C0F38100022809D16868C00306D5DB
:101F90002868800336D560680028C4D032E06068C5
:101FA000484503D1286840F4803009E008B1B842C0
:101FB0000DD0286820F480302860286820F4802024
:101FC0002860606888B1FEF7E9FB074609E02868E9
:101FD00040F480202860E5E7FEF7E0FBC01B6428A2
:101FE00077D828688003F7D50CE0FEF7D7FB0746C3
:101FF00005E000BFFEF7D2FBC01B6428F0D82868BC
:102000008003F7D4207880074ED5206930B10128AD
:1020100004D040F2A111C1A004F0C5F860691F28E6
:1020200008D902E096E042E07BE04FF4D171BBA01A
:1020300004F0B9F8686810F00C0F07D06868C0F3B6
:102040008100022809D16868C00306D42868800787
:1020500014D5206901287DD110E02069B0B1C6F8FF
:1020600000A0FEF79BFB074605E000BFFEF796FBCE
:10207000C01B0228B4D828688007F7D52868616992
:1020800020F0F80040EAC10028600DE0C6F80080AA
:10209000FEF784FB074604E0FEF780FBC01B022826
:1020A0009ED828688007F7D42078000736D5A94F36
:1020B000A06920B3012806D04FF4F17197A004F075
:1020C00072F8A069D8B1C7F800A0FEF767FB074611
:1020D00005E054E1FEF762FBC01B02288ED8686A57
:1020E0008007F7D59C484FF4FA510068B0FBF1F037
:1020F000009000BF0098411E0091FAD20EE0C7F890
:102100000080FEF74BFB074605E000BFFEF746FBED
:10211000C01B0228AED8686A8007F7D42078400731
:102120006ED5E068002740B1012806D0052804D00C
:1021300040F2112179A004F036F8E869C00008D413
:10214000E86940F08050E861E869012700F08050BC
:10215000009000E027E181480168C90512D40168B8
:1021600041F480710160FEF719FB834606E000BF71
:10217000FEF714FBA0EB0B00642891D877480068A9
:10218000C005F5D5E06801280AD008B1052811D0AE
:10219000286A20F001002862286A20F0040002E08A
:1021A000286A40F001002862E068A8B1FEF7F6FA5C
:1021B00083460DE0286A40F004002862F0E700BF83
:1021C000FEF7ECFAA0EB0B0141F28830814285D892
:1021D000286A8007F4D50EE0FEF7E0FA834607E0B0
:1021E000FEF7DCFAA0EB0B0141F28830814291D876
:1021F000286A8007F4D41FB1E86920F08050E861B4
:10220000E06900287ED0012809D0022807D040F2DA
:10221000AF2142A003F0C7FFE069002872D06868D0
:10222000C0F381000228E0696DD0022805D0C6F80D
:102230006080FEF7B3FA0446A4E0206A30B1484556
:1022400004D04FF42E7135A003F0ADFF606A70B377
:10225000B0F5802F2BD0B0F5002F28D0B0F5402F4F
:1022600025D0B0F5801F22D0B0F5A01F1FD0B0F54B
:10227000C01F1CD0B0F5E01F19D0B0F5001F16D05C
:10228000B0F5101F13D0B0F5201F10D0B0F5301FDF
:102290000DD0B0F5401F0AD0B0F5501F07D0B0F5F3
:1022A000601F04D040F2B9211CA003F07CFFC6F8E7
:1022B0006080FEF773FA074605E000BFFEF76EFA8E
:1022C000C01B02285BD828688001F7D4206A4845E3
:1022D0000FD1A06838B1B0F5003F04D040F2CF2153
:1022E0000EA003F060FF6868A16820F40030084386
:1022F0006860D4E908010843696821F4741108434F
:10230000686001E051E041E0C6F860A0FEF746FADF
:1023100004462AE000004242001002402E2E2F44C4
:102320007269766572732F53544D33324631787823
:102330005F48414C5F4472697665722F5372632F18
:1023400073746D3332663178785F68616C5F726385
:10235000632E630080044242880000200070004029
:10236000FEF71CFA001B022809D828688001F7D55F
:102370001BE000BFFEF712FA001B022802D903205F
:10238000BDE8F88F28688001F4D40EE00128F7D06A
:102390006868226A00F48031914204D1616A00F4D5
:1023A0007010884201D00120EAE70020E8E770477A
:1023B0007047000070B50D46044600682649884203
:1023C0000DD0B0F1804F0AD02449884207D024496B
:1023D000884204D040F2646122A003F0E4FE286841
:1023E00090B1102810D020280ED030280CD04028D2
:1023F0000AD0502808D0602806D0702804D040F2B7
:10240000656118A003F0CFFE6868802805D020B170
:1024100040F2666113A003F0C6FE94F83C00012868
:1024200018D0012304F83C3F0220607054F83C1C93
:1024300048688A6820F070062868304322F08006D9
:102440006A684860324354F83C0C82606370002034
:10245000207070BD022070BD002C014000040040BF
:10246000000800402E2E2F447269766572732F5338
:10247000544D3332463178785F48414C5F4472693D
:102480007665722F5372632F73746D3332663178B1
:10249000785F68616C5F74696D5F65782E630000BA
:1024A00010B504003AD02749206888420DD0B0F119
:1024B000804F0AD02449884207D02449884204D05A
:1024C0004FF4897122A003F06EFEA06860B110285D
:1024D0000AD0202808D0402806D0602804D040F236
:1024E00013111BA003F05FFE206950B1B0F5807F8F
:1024F00007D0B0F5007F04D04FF48A7114A003F028
:1025000052FEA06930B1802804D040F2151110A00D
:1025100003F049FE94F83D0010B107E0012010BD22
:10252000002084F83C00204600F02EF8022084F8B9
:102530003D00211D206802F0B1F8012084F83D0023
:10254000002010BD002C01400004004000080040A5
:102550002E2E2F447269766572732F53544D333289
:10256000463178785F48414C5F4472697665722FD6
:102570005372632F73746D3332663178785F68619C
:102580006C5F74696D2E630008B500680649884267
:1025900008D10648C16941F00201C161C06900F07B
:1025A0000200009008BD000000040040001002403E
:1025B00010B504460068114988420DD0B0F1804F33
:1025C0000AD00F49884207D00E49884204D040F211
:1025D000B9110DA003F0E7FD2068C16841F00101C9
:1025E000C1602068816801F00701062903D00168F5
:1025F00041F001010160002010BD0000002C0140ED
:1026000000040040000800402E2E2F4472697665B9
:1026100072732F53544D3332463178785F48414CB2
:102620005F4472697665722F5372632F73746D33D2
:1026300032663178785F68616C5F74696D2E630013
:102640002DE9F047054690F83C000C4601283CD0A7
:102650004FF0010985F83C90022085F83D00206884
:102660004FF480564FF40058B04215D0404513D077
:1026700090B1102810D020280ED030280CD040283F
:102680000AD0502808D0602806D0702804D041F223
:102690008A11A8A003F087FD2868816821F07701DE
:1026A00021F47F418160B2492368B048B14ACF1319
:1026B0004FF0804C502B7CD00FDC202B04D007DC5B
:1026C000002BFBD0102B4DD122E10220BDE8F0877A
:1026D000302BF9D0402BF6D1EFE0602B6AD04FF4CD
:1026E000405A702B4ED0B3423DD04345EBD12B68BE
:1026F00083420AD0634508D08B4206D0934204D06F
:1027000041F2B5118BA003F04EFDA06850B1B0426C
:1027100008D0404506D0504504D041F2B81185A0FC
:1027200003F041FD6068B84209D040B1022806D0EC
:102730000A2804D041F2B9117EA003F034FDE0680C
:102740000F2804D941F2BA117AA003F02CFDD4E984
:102750000121E368286802F029F82868816841F4BB
:1027600080418160A3E02B688342FBD06345F9D0B0
:102770008B42F7D09342F5D041F296116DA003F051
:1027800012FD94E02B6883420AD0634508D08B4247
:1027900006D0934204D041F29D1166A003F003FDE0
:1027A000A06868B1B0420BD0404509D0504507D071
:1027B00001E025E04FE04FF48D515EA003F0F3FC03
:1027C0006068B84209D040B1022806D00A2804D077
:1027D00041F2A11157A003F0E6FCE0680F2804D9EC
:1027E00041F2A21153A003F0DEFCD4E90121E36819
:1027F000286801F0DBFF2868816841F07701B0E7C5
:102800002B6883420AD0634508D08B4206D093429E
:1028100004D041F2C91147A003F0C5FC6068B8427A
:1028200009D040B1022806D00A2804D041F2CC11C8
:1028300040A003F0B8FCE0680F2804D941F2CD11A4
:102840003CA003F0B0FCE2686168286802F048F937
:102850005021286829E02B6883420AD0634508D0BC
:102860008B4206D0934204D041F2D91131A003F03B
:102870009AFC6068B84209D040B1022806D00A2804
:1028800004D041F2DC112BA003F08DFCE0680F288E
:1028900004D941F2DD1127A003F085FCE2686168EC
:1028A000286802F02EF96021286801F089FF85F878
:1028B0003D90002085F83C0008E72B6883420AD051
:1028C000634508D08B4206D0934204D041F2E9110F
:1028D00018A003F068FC6068B84209D040B1022833
:1028E00006D00A2804D041F2EC1112A003F05BFCE0
:1028F000E0680F2804D941F2ED110EA003F053FC5B
:10290000E2686168286802F0EBF840212868CCE7AB
:102910002B6883420AD0634508D08B4206D093428D
:1029200004D041F2FC1103A003F03DFC21682868AB
:10293000BBE700002E2E2F447269766572732F5309
:10294000544D3332463178785F48414C5F44726968
:102950007665722F5372632F73746D3332663178DC
:10296000785F68616C5F74696D2E6300002C0140B4
:102970000004004000080040704770B5044600683D
:1029800001694FF00005C943890715D4C168C943DF
:10299000890711D4E91E0161012020772068806930
:1029A0008007204602D0FFF7E7FF04E000F0BEF802
:1029B000204600F02AFA257720680169C9434907B3
:1029C00017D4C168C943490713D46FF004010161EA
:1029D000022020772068806910F4407F204602D0D2
:1029E000FFF7CAFF04E000F0A1F8204600F00DFA5E
:1029F000257720680169C943090716D4C168C9430E
:102A0000090712D46FF008010161042020772068C3
:102A1000C0698007204602D0FFF7AEFF04E000F057
:102A200085F8204600F0F1F9257720680169C9434F
:102A3000C90617D4C168C943C90613D46FF0100181
:102A40000161082020772068C06910F4407F20468B
:102A500002D0FFF791FF04E000F068F8204600F094
:102A6000D4F9257720680169C943C90708D1C1682D
:102A7000C943C90704D1891E0161204600F02AFA22
:102A800020680169C943090609D4C168C943090618
:102A900005D46FF0800101612046FFF788FC2068B3
:102AA0000169C943490609D4C168C943490605D427
:102AB0006FF040010161204600F016FA20680169BC
:102AC000C94389060BD4C168C943890607D46FF08E
:102AD000200101612046BDE87040FFF769BC70BD70
:102AE00000B585B000210091019102910391006829
:102AF0000B49884211D10B48816941F0080181617D
:102B00008069694600F008000490032000900220CC
:102B1000019003900448FDF779FC05B000BD00006A
:102B20000004004000100240000C0140704700000B
:102B30002DE9F04116000D4604460CD0042E0AD0B3
:102B4000082E08D00C2E06D03C2E04D040F6EB51B7
:102B500062A003F028FB2868602806D0702804D003
:102B600040F6EC515DA003F01EFBA86830B10228CE
:102B700004D040F6ED5159A003F015FB286930B19F
:102B8000042804D040F6EE5154A003F00CFB94F856
:102B90003C00012812D0012784F83C70022084F800
:102BA0003D005C485C495D4A4FF0804C4EB1042EBC
:102BB00028D0082E49D00C2E46D167E00220BDE86F
:102BC000F081236883420AD0634508D08B4206D047
:102BD000934204D040F6FA5140A003F0E4FA2946AB
:102BE000206801F0F5FD2068816941F008018161EC
:102BF0002068816921F004018161206881692A6966
:102C0000114320E0236883420AD0634508D08B42F9
:102C100006D0934204D040F60B6130A003F0C3FA13
:102C20002946206801F03AFE2068816941F400617C
:102C300081612068816921F48061816120688169F6
:102C40002A6941EA0221816142E0236883420AD075
:102C5000634508D08B4206D0934204D040F61C61F5
:102C60001EA003F0A0FA2946206801F081FE20682A
:102C7000C16941F00801C1612068C16921F0040106
:102C8000C1612068C1692A69114320E02368834239
:102C90000AD0634508D08B4206D0934204D040F658
:102CA0002D610EA003F07FFA2946206801F0CAFECC
:102CB0002068C16941F40061C1612068C16921F4E3
:102CC0008061C1612068C1692A6941EA0221C1614C
:102CD00084F83D70002084F83C0070E72E2E2F44CD
:102CE0007269766572732F53544D3332463178785A
:102CF0005F48414C5F4472697665722F5372632F4F
:102D000073746D3332663178785F68616C5F7469B3
:102D10006D2E6300002C01400004004000080040BC
:102D200010B504003AD02749206888420DD0B0F190
:102D3000804F0AD02449884207D02449884204D0D1
:102D400040F29B4122A003F02EFAA06860B1102847
:102D50000AD0202808D0402806D0602804D040F2AD
:102D60009C411BA003F01FFA206950B1B0F5807F91
:102D700007D0B0F5007F04D040F29D4114A003F0CD
:102D800012FAA06930B1802804D040F29E4110A010
:102D900003F009FA94F83D0010B107E0012010BDDE
:102DA000002084F83C00204600F02EF8022084F831
:102DB0003D00211D206801F071FC012084F83D00D8
:102DC000002010BD002C014000040040000800401D
:102DD0002E2E2F447269766572732F53544D333201
:102DE000463178785F48414C5F4472697665722F4E
:102DF0005372632F73746D3332663178785F686114
:102E00006C5F74696D2E63007047704770B505463E
:102E100000681F4E0C46B04206D10CB3042C1FD0E4
:102E2000082C1DD00C2C1BD0B0F1804F0CD01949B0
:102E3000884206D1A4B1042C12D0082C10D00C2C3E
:102E40000ED01549884206D154B1042C08D0082C64
:102E500006D00C2C04D040F2135110A003F0A3F9BB
:102E600001222146286801F04FFC2868B04203D1B6
:102E7000416C41F4004141642868816801F0070118
:102E8000062903D0016841F001010160002070BDF6
:102E9000002C014000040040000800402E2E2F446A
:102EA0007269766572732F53544D33324631787898
:102EB0005F48414C5F4472697665722F5372632F8D
:102EC00073746D3332663178785F68616C5F7469F2
:102ED0006D2E630000680349884201D1FEF7BAB93C
:102EE00070470000002C01407047704770B50268C1
:102EF00004461068D168536910F00F0F50D003F0EA
:102F0000010501F4907635435DD0C20705D0CA05AE
:102F100003D5E26B42F00102E263420705D5DA070E
:102F200003D0E26B42F00202E263820705D5DA07C2
:102F300003D0E26B42F00402E263020705D5DA0730
:102F400003D0E26B42F00802E263E26B002A33D066
:102F5000800604D5880602D5204601F0FAFD2068D7
:102F60004069E16BC0F38010090700D428B3204604
:102F700001F0E1FD2068416949061AD5416921F057
:102F800040014161606BA0B11B494163606BFDF77B
:102F9000DBF9002810D0606B416BBDE8704008473A
:102FA000830610D58B060ED52046BDE8704001F093
:102FB000D0BD2046FFF799FF70BD2046FFF795FF73
:102FC0000020E06370BD030606D50B0604D520463D
:102FD000BDE8704001F0AEBE4006F3D54806F1D51D
:102FE000D168204621F04001D160202184F83910B9
:102FF00000F02CF970BD0000274B000870B50400EC
:1030000020D0A06930490028304A314B20681BD0BD
:1030100088420AD0904208D0984206D04FF4A3715B
:103020002CA003F0C0F8A069C8B1A069B0F5807FFA
:1030300015D0B0F5007F12D0B0F5407F0FD040F230
:10304000471109E0012070BD884208D0904206D0A7
:10305000984204D040F24B111EA003F0A4F8A068DF
:1030600038B1B0F5805F04D040F24D1119A003F0E3
:103070009AF894F83900002520B984F83850204691
:1030800000F046F8242084F839002068C16821F453
:103090000051C160204601F0A7FD2068016921F4BC
:1030A000904101612068416921F02A014161206855
:1030B000C16841F40051C160E563202084F8390003
:1030C00084F83A00002070BD003801400044004000
:1030D000004800402E2E2F447269766572732F537C
:1030E000544D3332463178785F48414C5F447269C1
:1030F0007665722F5372632F73746D333266317835
:10310000785F68616C5F756172742E630000000007
:1031100030B585B0002400940194029403940068B3
:10312000184988422CD11848816941F48041816155
:10313000816901F480410491816941F00401816158
:103140008069124D00F0040004904FF4007000906C
:10315000022001900320039069462846FDF756F9A6
:103160002815CDE90004694628460294FDF74EF97A
:10317000002205212520FEF717F92520FEF7E2F8A9
:1031800005B030BD00380140001002400008014089
:1031900070472DE9F843044690F839001F4616465B
:1031A0000D46202850D1A5B19EB194F838000128D1
:1031B0004AD0012084F838004FF00008C4F83C8061
:1031C000212084F83900FDF7E9FAA6848146E684D7
:1031D00026E00120BDE8F883E08C401EE084A06872
:1031E0004B46B0F5805F4FF000024FF08001204663
:1031F000009703D001F0CFFDE8B90DE001F0CBFD61
:10320000C8B928882168C0F308004860206908B15F
:103210006D1C05E0AD1C03E0216815F8010B48604A
:10322000E08C0028D8D14B46002240212046009750
:1032300001F0B1FD08B10320CCE7202084F839006B
:1032400084F838800020C5E70220C3E77047FEE716
:103250000148FDF7ABBA0000000200200148FDF76D
:1032600007BB00000002002010B5406A90F83D3016
:10327000426B00219162826B91620268146824F4AF
:10328000806414604185426B5163826B51630268B4
:10329000146824F00104146090F83D202024602A72
:1032A0000BD0282232EA03030FD080F83D4080F88B
:1032B0003E1000BFFDF709FC10BD80F83D4080F8CE
:1032C0003E100164FDF770FA10BD03681C6844F0FD
:1032D00001041C6003681C6844F480641C60016382
:1032E00080F83D20E6E7000070B5044690F83D0008
:1032F00094F83E10102906D1222804D121680A68CA
:1033000022F400620A60282131EA00024FF0000531
:103310004FF0200626D021684968090503D46028AB
:1033200001D084F83D60256384F83E5020684168F0
:10333000090537D5416821F400614160606B384967
:1033400090F82120012A11D04163606BFCF7FCFF4B
:1033500038B32068016821F00101016084F83D6004
:10336000606B1CE0256384F83D10DFE7A06B4163D0
:10337000A06BFCF7E9FFA0B120684169C943490689
:1033800005D40069616A0870606A401C6062206848
:10339000016821F00101016084F83D60A06B416B80
:1033A000884710E094F83D10602923D04169C94353
:1033B000490605D40069616A0870606A401C606251
:1033C0002046FDF782FB94F83D00216C490710D59B
:1033D00028280ED12068416821F4E061416011483D
:1033E000E062256384F83D6084F83E502046FDF796
:1033F0004FFD70BD84F83D6025644169C9434906AD
:1034000005D40069616A0870606A401C60622068C7
:10341000016821F0010101602046FDF7C5F9D2E7FE
:10342000693200080000FFFF01684A69D243520573
:103430000FD46FF480624A61002140F8301F2022CF
:1034400042738173026942F0040202610173012038
:1034500070470020704710B5C26A438D0168042B85
:1034600006D0438D032B08D0438D022B1DD012E0D4
:103470004A6822F480624A600CE04B6823F480635F
:103480004B60042A06D0022A04D001680A6822F49C
:1034900080620A6001680969426A1170416A491CC8
:1034A0004162418D491E418510BD012A30D0102A4C
:1034B0002ED0042A30D0022A2ED00A6842F400729C
:1034C0000A6001680969426A1170416A491C4162D7
:1034D000428D521E4285026812690A70416A491C77
:1034E0004162418D491E418501684A6822F440725B
:1034F0004A60202180F83D1090F83E200021402AAB
:1035000080F83E100CD012210163FDF7C2FC10BD03
:103510000A6822F48062D3E70A6842F48062CFE747
:103520000163FDF755FE10BD10B590F83D1022293E
:1035300014D1418D032912D901680969426A1170B9
:10354000416A491C4162418D491E4185418D0329D3
:1035500004D10068416821F48061416010BDC26AF5
:10356000022AFBD0012901D00029F7D101680A689D
:1035700022F480620A6001684A6822F4E0624A60CC
:1035800001680969426A1170416A491C4162418DB2
:10359000491E4185202180F83D1090F83E200021F1
:1035A000402A80F83E1004D012210163FDF771FC1F
:1035B00010BD0163FDF70CFE10BD2DE9F84F044668
:1035C000C06A1E4692460D4621680A6842F480622F
:1035D0000A60082807D0012805D010F5803F02D0E6
:1035E000206B112804D12068016841F480710160CA
:1035F0004FF001185346002241462046009600F045
:1036000059FBF0BB206908F10109B0F5804F0FD0DC
:103610000620216800EAD51747F0F000086133461C
:10362000524608F10701204600F078FB48BB03E052
:10363000E8B240F001001BE02168E8B208613346BF
:1036400052464946204600F069FBD0B920684169DE
:1036500081690091016841F4807101605346002244
:1036600041462046009600F025FB50B947F0F10096
:1036700021680861334652464946204600F04EFB19
:1036800000E001E0002800D00120BDE8F88F000034
:10369000F8B50446C06A1E460D461746082807D0EE
:1036A000012805D010F5803F02D0206B122804D1EC
:1036B0002068016841F480710160134600224FF0D8
:1036C00001112046009600F0F5FA08BB2069B0F51C
:1036D000804F0ED00620216800EAD51040F0F0009F
:1036E000086133463A460B49204600F017FB78B98B
:1036F00002E005F0FE0000E0E8B22168086105493B
:1037000033463A46891F204600F008FB002800D0C7
:103710000120F8BD0800010010B5C26A90F83D1004
:1037200021290BD1418D51B1416A0268097811619B
:10373000416A491C4162418D491E418510BD2023CB
:103740000021082A13D0202A11D012F5803F0ED074
:103750000268546824F4E06454601122026380F823
:103760003E1080F83D3000BFFDF794FB10BD0268AD
:10377000546824F4E06454600268146844F40074EB
:103780001460016380F83D3090F83E2080F83E10D0
:10379000402AE9D1FDF71DFD10BD000010B590F8DD
:1037A0003D1090F83E30C26A048D64B1212903D0E7
:1037B000402B21D122291FD1418DA1B390F83E1079
:1037C000402937D046E02129F2D120230021082AC0
:1037D00013D0202A11D012F5803F0ED00268546811
:1037E00024F4E06454601122026380F83E1080F8F3
:1037F0003D3000BFFDF74EFB10BD0268546824F455
:10380000E06454600268146844F400741460016356
:1038100080F83D3090F83E2080F83E10402AE9D1F3
:10382000FDF7D7FC10BDFFE70068416821F4806117
:103830004160F7E7016DC1B1016D012922D0016D31
:103840000229EFD190F83D10222923D090F83D10A5
:103850002129E7D1416A026809781161416A491C4E
:103860004162418D491E4185DCE7C16C0129816CB3
:1038700002D0C1F3072107E00268C9B21161016DEE
:10388000891C05E0816CC9B202681161016D491C97
:103890000165C7E70068016841F480710160C1E714
:1038A00078B590F83E50C26A046B90F83D600023F2
:1038B0000168222E73D1066D0EB9402D6FD0056DB3
:1038C0001DB90569B5F5404F1BD0458D95B3468DA3
:1038D000484D012E20D0448D022C4DD00C6844F46C
:1038E00080640C6001684C68240579D5AA4273D0C5
:1038F000012A71D0082A6FD0102A6DD0202A6BD0EF
:103900006EE04A698A6900920A6842F480720A602D
:10391000016D491C016578BDAA4214D10A6822F4E0
:1039200080620A6001684A68120504D50A6822F4B8
:10393000806217E0FFE74A698A6900920A6842F4E8
:1039400000720A6050E0082A10D0202A0ED0122CF3
:103950000AD0042A03D0022A01D0102AE6D10A682C
:1039600042F480620A603BE0012ADFD00A6822F458
:1039700080620A600168DEE7042A11D0022A0FD0B3
:10398000102A0DD00C6844F400640C6001684C6986
:103990008C6900940C6824F480640C6008E025E0D5
:1039A0000C6844F480640C6001684C69896900917A
:1039B00001684C68240517D5AA4207D0012A05D012
:1039C000082A03D0102A01D0202A0DD14A6842F4D7
:1039D00080524A6008E0FFE74A6842F480524A6039
:1039E00001684A6989690091036578BD48698869F9
:1039F000009078BD0000FFFF90F83E10402910D0E5
:103A00000169B1F5804F19D0016DB1B3016D012984
:103A100010D1416C5FF0F10201F4407142EAD11122
:103A200006E0016D0029416C05D0C9B241F00101E9
:103A300000680161704701F0FE01F9E790F83D1060
:103A40002129416C07D0C9B241F00101026811611E
:103A5000416B31B902E001F0FE01F7E7826B002A09
:103A6000E8D0896A19B9816B896A0029E2D00068B7
:103A7000416841F4006141607047FFE7416CF0220A
:103A800001F44071CAE700002DE9F04190F83D4093
:103A9000C26A002320261C4F01686FF48065082A43
:103AA00001D0202A01D1282C04D0212C16D04D6120
:103AB000BDE8F081C7624A6822F4E0624A600168AA
:103AC0004D6101680A6822F480620A60036380F82D
:103AD0003D6080F83E30FDF7DBF9E9E7C76221225F
:103AE000026380F83D6080F83E304A6822F4E0626C
:103AF0004A6001684D6101680A6822F480620A60C8
:103B0000FDF7A7FBD4E700000000FFFFF8B590F831
:103B10003D6004460068416821F4E061416020682E
:103B2000002541690091016841F0010101602068B0
:103B3000016821F48061016020684168090520D591
:103B4000474F222E48D02A2E46D0616B096849681B
:103B50006185618D19B1216C41F0040121644168D6
:103B600021F400614160606BFCF73AFC012808D049
:103B7000606B4763606BFCF7E7FB10B1606B416BF8
:103B80008847608D08B320684169C943490708D454
:103B90000069616A0870606A401C6062608D401E46
:103BA000608520684169C943490608D40069616A93
:103BB0000870606A401C6062608D401E6085608D88
:103BC00018B1206C40F004002064206C00B3204643
:103BD000BDE8F840FFF788BBA16B096849686185BB
:103BE000618D19B1216C41F004012164416821F417
:103BF00000614160A06BFCF7F3FB0128C1D0A06B12
:103C00004763A06BFCF7A0FB0028BAD0A06BB6E717
:103C10002A2E06D12563282084F83D002046FDF792
:103C200017FB94F83D10202028290DD0216B222964
:103C300001D0222E07D1256384F83D0084F83E5040
:103C40002046FDF705FBF8BD0649E162256384F8CF
:103C50003D0084F83E502046FDF71AF9F8BD0000FB
:103C6000693200080000FFFF70B516460D46044695
:103C70000DE02046FFF7D8FB08B1012070BD681C9D
:103C800005D0FCF78BFD801BA84207D835B1206812
:103C90004069C0434007ECD4002070BD002044F8C8
:103CA000300F20216173A073216941F0200121614F
:103CB0002073E2E72DE9F0471E4690460D46044684
:103CC000C1F30747DDF8209008E0701C06D0FCF730
:103CD00065FDA0EB0900B0420FD876B12068012F36
:103CE00018D0806925EA00000004000C14D00021DF
:103CF0004145EAD00020BDE8F087002044F8300FAD
:103D000020216173A073216941F02001216120739A
:103D10000120F0E74069E5E70121E9E72DE9F047F7
:103D20009A4691460E46044600254FF02008C1F3FE
:103D3000074725E020684069C043400514D4206847
:103D4000016841F40071016021686FF4806048618E
:103D5000256384F83D8084F83E50206C40F00400D8
:103D6000206484F83C501FE0B9F1FF3F08D0FCF715
:103D700015FDA0EB0A0149450CD8B9F1000F09D097
:103D80002068012F13D0806926EA00000004000C8F
:103D90000BD0CFE744F8305F84F80D80A57320691D
:103DA00040F02000206125730120BDE8F0874069C4
:103DB000EAE72DE9F041002590460E46044620270B
:103DC00017E04069C043C0060CD454F8301B6FF0B4
:103DD0001000486144F810596777A577206A20627F
:103DE000257717E0FCF7DAFCA0EB0800B04208D812
:103DF0003EB120684169C9434906E2D40020BDE8CC
:103E0000F08144F8305F6773A573206940F02000AB
:103E1000206125730120F2E770B516460D46044671
:103E20000DE02046FFF700FB08B1012070BD681CC3
:103E300005D0FCF7B3FC801BA84207D835B1206839
:103E40004069C0430006ECD4002070BD002044F857
:103E5000300F20216173A073216941F0200121619D
:103E60002073E2E7F0B500230A24302537261F46E9
:103E700011E000BFB4EB107F02D905EB107C01E02C
:103E800006EB107C01F813C001EB430C00015B1C36
:103E90008CF80170DBB29342ECD3F0BD2DE9F04316
:103EA00085B00024324800940194029403948169FF
:103EB00041F010018161816901F010010491816973
:103EC00041F020018161816901F020010491816943
:103ED00041F004018161816901F00401049181696B
:103EE00041F0080181618069224F00F008004FF421
:103EF000C0450490002229463846FCF719FCDFF83B
:103F000078904FF40078002241464846FCF710FCB8
:103F10000095022601250396CDE9015469463846ED
:103F2000FCF774FAE803CDE90004694638460294C8
:103F3000FCF76CFA48F2FF100327CDE90007694649
:103F40000E48FCF763FA4FF63C50CDE9000769468E
:103F50004846FCF75BFACDF800800396CDE90154A2
:103F600069464846FCF752FA05B0BDE8F083000008
:103F70000010024000100140000C01400008014008
:103F800010B58EB000240794089409940A940B94F9
:103F90001C2168460C94FCF72AF91948174901605E
:103FA0001821C0E901144FF47A71C0E90314846147
:103FB000FEF776FA4FF48050079007A91048FEF7F5
:103FC0003FFB0F48FEF7ACFE0B940BA90C480C947A
:103FD000FEF7F0F96020CDE900040294082269465A
:103FE00007480494FEF7A4FD0C2269460448FEF736
:103FF0009FFD0348FEF774FD0EB010BD00040040A5
:104000005402002010B500220F49104801F0D4F9E5
:1040100008B1FCF798F90E490C4801F0AFFB08B164
:10402000FCF791F90B49094800F0D2FF08B1FCF701
:104030008AF9064801F0F8FB002803D0BDE81040DB
:10404000FCF781B910BD00001000002044050020DD
:10405000C80100206C000020FEE770472DE9F05FEA
:10406000044648F60F7B4FF0020A4FF480684AE19D
:10407000B0F8441011F00F0629D030F8267039043A
:1040800079D530F8261040F68F72114041F080014A
:1040900020F8261004EB461595F8340105F59475C3
:1040A0000028206868D0297830F8212052047DD576
:1040B000B0F850200AEBC1010A4408EB4201415A12
:1040C000C1F309015FEA010971D02A89D2E0C9066A
:1040D0002DD4018801EA0B0141F4004101802068E0
:1040E00004F12805B0F850202B780AEBC3010A44EC
:1040F00008EB4201405AC0F309006064E16B0844D8
:10410000E06300212046FDF7FAF994F82400002826
:10411000ADD0A8690028AAD194F82400216840F005
:104120008000A1F84C00002084F82400EBE0018816
:1041300004F594750A0520D5B0F850202B78062197
:1041400001EBC3010A4408EB4201405A04F50C712B
:10415000C0F30903EB61EA88206801F0D3FF20680F
:10416000018840F68F72114041F0800101802046A5
:10417000FDF723FCC7E0A2E058E0090455D501880B
:1041800040F68F72114041F0800101802168B1F842
:1041900050202B78062000EBC300024408EB4200BD
:1041A000085A83059B0DEB6110D001E053E065E0F8
:1041B000696959B1EA88206801F0A4FFE969686972
:1041C0000844686100212046FDF7A0F92068B0F896
:1041D00050100844296900F20C4051B13E2910D812
:1041E0004A08C90700D0521C4FF6FF7101EA82212C
:1041F0000FE0018821F4F8410180018841F4004179
:1042000007E04A09C90600D1521E4FF4004141EAB5
:1042100082210180206801884BF68F72114081F461
:10422000405148F28002114301806CE0B0F8502008
:104230002B78062101EBC3010A4408EB4201415AE5
:10424000C1F309015FEA010924D0EA884B46696994
:1042500001F058FF1EE0B0F85030062202EBC10119
:104260005A1808EB4201415AC1F309015FEA0109FA
:1042700004D06A894B46696901F044FF28782268B6
:1042800032F8201048F68F73194048F2C0031943E2
:1042900022F82010E8694844E861686900EB0902E7
:1042A0006A61AB6913B12869484504D92978204669
:1042B000FDF72CF903E029782046FDF7B4F938061C
:1042C00021D5216804EB461031F8262002EA0B02C2
:1042D00042F4004221F826202168B1F8505010F82D
:1042E000282F0AEBC2022A4408EB4202895AC1F382
:1042F0000901C16142690A4442610178836920462B
:1043000053B1FDF7DCF92068B0F8441009043FF51B
:10431000AFAE0020BDE8F09FFDF7F1F8F3E72DE91F
:10432000FF4706467520DDF830908DF8080042F012
:10433000D00598460F460D700523022229463046C7
:10434000FCF7FAFC40BB4FF47A74012302AA294619
:1043500030460094FCF7A6FEF0B9012303AA2946D3
:1043600030460094FCF798FDB0B903E0032004B098
:10437000BDE8F0879DF80C006828F7D16B208DF818
:10438000040000208DF80500022301AA29463046CA
:104390000094FCF787FE08B10120E8E707223946C0
:1043A000304600F052F842463946304600F007F8F1
:1043B0004A463946304600F05DF80020D7E72DE93F
:1043C000FE43074691F800801C2016460D468DF8E6
:1043D00008004FF47A74012302AA4146384600943B
:1043E000FCF760FE0028F6D1012301AA41463846B9
:1043F0000094FCF751FD0028F6D19DF8040000F070
:10440000E70040EAC6008DF80400012301AA4146F6
:1044100038460094FCF746FE0028F6D136B1012E4E
:1044200007D0022E0BD0032E06D10BE04FF06250C6
:1044300001E04FF06450A8600020BDE8FE834FF01B
:104440006650F8E74FF06850F5E77CB504460D7804
:1044500019208DF804008DF805204FF47A76022398
:1044600001AA294620460096FCF71CFE0028F6D13A
:104470007CBD00002DE9FE43074691F800801B201B
:1044800016460D468DF808004FF47A74012302AAEF
:10449000414638460094FCF705FE0028F6D101237A
:1044A00001AA414638460094FCF7F6FC0028F6D1F4
:1044B0009DF8040000F0E70040EAC6008DF8040013
:1044C000012301AA414638460094FCF7EBFD002881
:1044D000F6D136B1012E06D0022E09D0032E04D11A
:1044E00008E0054800E0054868600020BDE8FE835C
:1044F0000348F9E70348F7E72D23FA3B2D237A3CDD
:1045000090C1F93C90C1793DFFF77CFD012001F09D
:10451000C1FEFBE708B50024114923462246A1F15C
:10452000D4000094FFF7FBFE0E4908704FF4FA70B8
:10453000FBF75AFF0C4E0D4F0D4D28780128FCD18A
:104540000948FBF75FFE81B20748FBF7E5FE002054
:10455000396801E03454401C8842FBD32C70ECE7EE
:10456000D402002000000020940E002064000020EF
:10457000610000201CB50EA10F4DD1E900014FF4E0
:104580007A76CDE9000100242868C4632968C4F55F
:104590007A7008640A20FBF727FF641CB442F3DB3F
:1045A00005216846FBF7B8FE012001F073FEEAE73B
:1045B0005441534B330000005402002010B55020EA
:1045C00080F31188BFF34F8FBFF36F8F02F0BAFAF9
:1045D00018B104494FF080500860002080F3118822
:1045E00010BD000004ED00E030B593B0282168460E
:1045F000FBF7FDFD14210AA8FBF7F9FD00240120BB
:104600000F9410941194010412948DE813000490F7
:104610000005CDE90810022507956846FDF780FCE6
:104620000F20CDE90A056802CDE90C4001210AA856
:104630000E94FDF7BFFA10200F90800412900FA87F
:10464000FDF7EEF913B030BD0D48016841F00101EE
:10465000016041680B4A1140416001680A4A1140FB
:104660000160016821F480210160416821F4FE01AC
:1046700041604FF41F0181600449C0030860704726
:10468000001002400000FFF8FFFFF6FE08ED00E01A
:104690000148FEF772B90000C8160020F0B50268A4
:1046A000164B174C174D4FF08047984205D0B84233
:1046B00003D0A04201D0A84203D122F070064A687C
:1046C0003243984205D0B84203D0A04201D0A8425C
:1046D00003D122F44074CA6822434C6922F080025C
:1046E000224302608A68C2620A688262984201D1EB
:1046F0000969016301214161F0BD0000002C014006
:10470000000400400008004070B5044616481646F4
:104710000D4684420DD0B4F1804F0AD01348844234
:1047200007D01348844204D041F6C91111A001F00A
:104730003AFD65B1042D0AD0082D08D00C2D06D005
:104740003C2D04D041F6CA110AA001F02CFD05F061
:104750001F010120226A884082432262206A8E4023
:104760003043206270BD0000002C01400004004076
:10477000000800402E2E2F447269766572732F5305
:10478000544D3332463178785F48414C5F4472690A
:104790007665722F5372632F73746D33326631787E
:1047A000785F68616C5F74696D2E630010B5846812
:1047B00042EA032224F47F440A432243826010BD6C
:1047C000826822F070020A4342F00701816070475C
:1047D0002DE9F0410446006A0D4620F001002062F8
:1047E000206A6768A169AE6820F0020021F07302B8
:1047F000064329681A4841EA0208844228D1E86839
:1048000030B1082804D041F2017116A001F0CBFCB0
:10481000E86826F00801084320F00406A869B0F50E
:10482000007F05D020B141F20E710EA001F0BBFC5B
:104830006869B0F5807F05D020B141F20F7109A001
:1048400001F0B1FC27F440716869AF690843074380
:104850006760C4F81880686860632662BDE8F0810C
:10486000002C01402E2E2F447269766572732F53EF
:10487000544D3332463178785F48414C5F44726919
:104880007665722F5372632F73746D33326631788D
:10489000785F68616C5F74696D2E63002DE9F0418B
:1048A0000446006A0D4620F010002062206A676806
:1048B000A1692A6821F4E64141EA0228A96820F0AA
:1048C000200040EA01161B4884422BD1E86830B131
:1048D000082804D041F24C7117A001F064FCE9688B
:1048E00026F0800040EA011020F04006A869B0F5EB
:1048F000007F05D020B141F25A710FA001F053FCA6
:104900006869B0F5807F05D020B141F25B710AA0E3
:1049100001F049FC696927F4406040EA8100A96917
:1049200040EA81076760C4F818806868A06326625F
:10493000BDE8F081002C01402E2E2F44726976656F
:1049400072732F53544D3332463178785F48414C5F
:104950005F4472697665722F5372632F73746D337F
:1049600032663178785F68616C5F74696D2E6300C0
:104970002DE9F0410446006A0D4620F48070206263
:10498000206A6768E16920F4007021F073022968E9
:1049900041EA0208A96840EA01261B4884422BD15B
:1049A000E86830B1082804D041F2977117A001F0EF
:1049B000FAFBE96826F4006040EA012020F48066F2
:1049C000A869B0F5007F05D020B141F2A4710FA015
:1049D00001F0E9FB6869B0F5807F05D020B141F2B4
:1049E000A5710AA001F0DFFB696927F4405040EA95
:1049F0000110A96940EA01176760C4F81C80686863
:104A0000E0632662BDE8F081002C01402E2E2F4489
:104A10007269766572732F53544D3332463178780C
:104A20005F48414C5F4472697665722F5372632F01
:104A300073746D3332663178785F68616C5F746966
:104A40006D2E63002DE9F0410446006A0D4620F406
:104A500080502062206A6668E1692A6821F4E64194
:104A600041EA0228A96820F4005040EA01370D48C5
:104A700084420ED16869B0F5807F05D020B141F243
:104A8000E37109A001F08FFB696926F4804040EAD8
:104A900081166660C4F81C80686820642762BDE8DF
:104AA000F0810000002C01402E2E2F4472697665A3
:104AB00072732F53544D3332463178785F48414CEE
:104AC0005F4472697665722F5372632F73746D330E
:104AD00032663178785F68616C5F74696D2E63004F
:104AE00010B5036A046A24F001040462846924F0A6
:104AF000F00444EA021423F00A020A4384610262C9
:104B000010BD10B5036A23F0100303628369046AC1
:104B100023F4704343EA023224F0A00343EA011174
:104B20008261016210BD10B5406A0021C185C18457
:104B3000FEF7DBF910BD0168CA6822F49072CA6002
:104B400001684A6922F001024A61202180F83A1086
:104B5000704710B590F83A10222901D0022010BDFC
:104B60008168B1F5805F11D00169002901681FD00B
:104B7000496801F07F03816A4A1C82620B70C18D13
:104B8000491E0904090CC18518D02BE00269816A0D
:104B9000002A0268526805D0D2B20A80816A491C94
:104BA0008162ECE7C2F308020A80816A891CF7E798
:104BB0004A68816A4B1C83620A70E0E70168CA6830
:104BC00022F02002CA600168CA6822F48072CA60BA
:104BD00001684A6922F001024A61202180F83A10F6
:104BE000FEF7D6FA002010BD2DE9F04104464068DA
:104BF0003F49884204D940F6FD313EA001F0D3FA86
:104C0000E06838B1B0F5005F04D040F6FE3139A05D
:104C100001F0C9FA206950B1B0F5806F07D0B0F546
:104C2000C06F04D040F6FF3132A001F0BCFA6069D9
:104C30004FF6F371084200D120B94FF440612DA026
:104C400001F0B1FA20680169E26821F44051114392
:104C500001612169A0682268084361690843D1683D
:104C600041F20C6399430143D16020684169A26914
:104C700021F44071114341612D4920686425322699
:104C8000884202D1FDF706F901E0FDF7F3F800EBE9
:104C9000C00101EB001160686FF018078000B1FBE4
:104CA000F0F2B2FBF5F2B1FBF0F37A4303EB8202D0
:104CB000B1FBF0F306EB0212B2FBF5F2B3FBF5F336
:104CC00002F0F00202EB0312B1FBF0F3B1FBF0F0E3
:104CD000B0FBF5F0784303EB800006EB0010B0FB6F
:104CE000F5F0216800F00F0010448860BDE8F08105
:104CF00020AA44002E2E2F447269766572732F53BA
:104D0000544D3332463178785F48414C5F44726984
:104D10007665722F5372632F73746D3332663178F8
:104D2000785F68616C5F756172742E6300000000CB
:104D30000038014090F83910212901D00220704735
:104D40008168B1F5805F016A0BD04A1C026202687B
:104D500009785160C18C491E0904090CC1840ED028
:104D600017E009880268C1F3080151600169002950
:104D7000016A02D0491C0162ECE7891CFBE701686B
:104D8000CA6822F08002CA600068C16841F0400130
:104D9000C160002070472DE9F041984617460E4645
:104DA0000446069D1DE0681C1BD02DB1FBF7F6FCE8
:104DB000A0EB0800A84214D92068C16821F4D07182
:104DC000C1602068416921F001014161202084F81F
:104DD000390084F83A00002084F838000320BDE848
:104DE000F0812068006836EA000004D00020B84254
:104DF000D9D00020F3E70120F9E700000148FEF7D1
:104E000075B80000940200202DE9F041D0F8C032BE
:104E1000D0F8B822CAB101EB810400EB840400256C
:104E2000E6693EB103EB41139B6BB6FBF3F703FB63
:104E3000176323B1C2F814520020BDE8F0810023AB
:104E40001A46E56100F07DFCF6E70220F5E770B553
:104E50000546D0F8B84200F07AFBC4F80C02D5F849
:104E6000B80248B1D5F8BC12D4F80402CA6804F5F7
:104E700003719047002070BD022070BD70B50446DC
:104E80000026812100F0B6FA002501212046E562C6
:104E900000F0B0FA82212046C4F86C5100F0AAFA62
:104EA0002564D4F8B80248B1D4F8BC0204F52E74D5
:104EB00040688047206800F014FE2560304670BDD1
:104EC00010B5D0E9AE4159B194F80002FF2807D0DF
:104ED0008B6894F8012221469847FF2084F800024D
:104EE000002010BD0A21018000487047F00000201A
:104EF0004321018000487047400100204321018088
:104F000000487047FC0000204321018000487047A2
:104F1000840100202DE9F04104460026007C4FF476
:104F20000077012590B3402302228121204600F022
:104F300061FB4023E56202220121204600F05AFB7A
:104F40000823032282212046C4F86C5100F052FB52
:104F50004FF40770256400F0C5FDC4F8B802F8B13D
:104F60000546D4F8BC02006880470020C5F814024A
:104F7000C5F81802207CD5F8042298B140230121FD
:104F8000204600F043FB3046BDE8F081FFE73B469A
:104F900002228121204600F02DFB3B46E562CAE754
:104FA0000126F0E73B46EAE710B5D0F8B81269B140
:104FB000027C002AD1F8042205D04023012100F010
:104FC00025FB002010BD4FF40073F7E7022010BD51
:104FD00002460220002902D00020C2F8BC1270470D
:104FE000D0F8B802C0F8041200207047D0F8B80218
:104FF000C0F81022C0F80812002070472DE9FC41CB
:105000000546D0F8B87200208DF80000ADF8040015
:10501000064608780C4610F0600121D020293BD1CB
:10502000E288AAB10006607807D5D5F8BC128B6873
:1050300039469847E288394626E087F80002A07989
:1050400087F80102E2883946284600F06AF828E02D
:10505000D5F8BC12607800228B682146984720E082
:10506000607820B10A2809D00B2815D110E095F8F6
:105070009C02032810D1022201A905E095F89C02A8
:10508000032809D101226946284600F064F808E0A7
:1050900095F89C02032804D02146284600F036F8F3
:1050A00002263046BDE8FC8110B5D0F8B812A1B197
:1050B000D1F814220AB1012010BD0122C1F8142236
:1050C000D1F810220263B1F8102293B2D1F808226D
:1050D000812100F036FB002010BD022010BD10B56C
:1050E000D0F8B42252689047002010BD134610B586
:1050F0000A46002100F08AFA002010BD134610B5C0
:105100000A46002100F01DFB002010BD10B504462A
:10511000802100F0FBFA2046BDE81040002100F09D
:10512000F5BA10B50323C0F85C21C0F89432C0F87A
:10513000602113460A46002100F068FA002010BDE5
:1051400010B505210023C0F894121A46194600F044
:105150005DFA002010BD10B50223C261C0F8943280
:10516000026213460A46002100F0EBFA002010BD4F
:1051700010B504210023C0F894121A46194600F015
:10518000E0FA002010BD000010B50A46024903A055
:1051900000F0E2F8004810BD940C00204344432086
:1051A000436F6E66696700001220088000487047F0
:1051B0003000002010B50A46024903A000F0CCF8E8
:1051C000004810BD940C002043444320496E746590
:1051D0007266616365000000042008800048704723
:1051E0002C00002010B50A46024903A000F0B4F8D4
:1051F000004810BD940C002053544D6963726F65D4
:105200006C656374726F6E696373000010B50A4653
:10521000024903A000F0A0F8004810BD940C002043
:1052200053544D3332205669727475616C20436F4C
:105230006D506F727400000010B51A2008800A4883
:105240000168001D0468001D0068081809D00822C4
:105250000649FEF707FE0549042210312046FEF7F5
:1052600001FE0248801E10BDE8F7FF1F4600002027
:10527000F8B504460020ADF8000048880D46010A44
:10528000082948D2DFE801F04704091747473C45A1
:10529000D4F8B012207C0A6819E0207C022600288D
:1052A000D4F8B40205D0C16A684688470146467002
:1052B0003EE0816AF8E7C0B206282CD2DFE800F0B1
:1052C000030A1014181CD4F8B002426805E06946BD
:1052D00090471CE0D4F8B0028268E2B1207CF6E787
:1052E000D4F8B002C268F8E7D4F8B0020269F4E773
:1052F000D4F8B0024269F0E7D4F8B0028269ECE772
:10530000207C40B9D4F8B402416B68468847014616
:105310000EE0207C20B129462046FFF7F7FEF8BDBD
:10532000D4F8B402016B68468847014607204870EC
:10533000BDF8000048B1EA8852B1824200D9024665
:10534000ADF800202046FFF706FFE8880028E6D1E8
:105350002046FFF70DFFF8BD70B5002300281ED0D2
:105360000446002502E06D1CEDB2641C2678002E78
:10537000F9D1022404EB450414801278CA545B1C52
:105380000322CA5400245B1C06E0CA545B1CDAB238
:105390008C54521CD3B2401C0278002AF5D170BD47
:1053A00001004FF0000004D0012901D0022901D0F2
:1053B000022070470120704710B580B1D0F8B43298
:1053C00013B10023C0F8B43209B1C0F8B012012102
:1053D00080F89C12027000F0BFF8002010BD02207F
:1053E00010BD10B5D0F8C002FCF7BCF8BDE8104005
:1053F000FFF7D6BF10B5D0F8C002FCF78FF8BDE8B4
:105400001040FFF7CDBF2DE9F0411746044651B1DA
:10541000D4F8B40242691AB194F89C02032851D01E
:105420000220BDE8F081D4F89432002504F1140084
:10543000022B03D0042B3AD0C3B33CE0D0E9036382
:105440009E4207D9F11AC1608AB239462046FFF759
:1054500055FE12E08068B0FBF3F103FB110199B92E
:10546000984211D3D4F8981288420DD200221146E6
:105470002046FFF743FEC4F8985200231A46194607
:10548000204600F0C3F816E0D4F8B402C16829B190
:1054900094F89C02032801D12046884780212046A9
:1054A00000F034F92046FFF74BFE04E0FFE78021CF
:1054B000204600F02BF994F8A002012804D184F8CA
:1054C000A05201E0204690470020AAE770B515469B
:1054D000044649B1D4F8B40282691AB194F89C0226
:1054E000032830D0022070BDD4F8941204F5AA70BD
:1054F000032902D005291ED027E0D0E903218A42E2
:105500000BD9531AC3600846834200D303469AB2AC
:1055100029462046FFF7EAFD17E0D4F8B4020169F6
:1055200029B194F89C02032801D1204688472046DF
:10553000FFF71EFE09E000200146C4F89402204651
:1055400000F0E4F801E020469047002070BDD0F85C
:10555000C002FCF733B8000010B504461C481D49D2
:10556000C0F86842C4F8C00201600821416002210D
:10557000816000218161C1610162FCF741F908B1DC
:10558000FAF7E1FE0022D4F8C0021823114604F510
:105590003074FBF799FF5823002280212068FBF725
:1055A00093FFC023002281212068FBF78DFF4FF479
:1055B0008873002201212068FBF786FF4FF4807377
:1055C000002282212068FBF77FFF002010BD000031
:1055D000280A0020005C00400A06D0F8C00201F052
:1055E0007F0100EB411002D590F82A00704790F837
:1055F0002A01704710B51C461346D0F8C002224657
:10560000FBF7E3FFBDE81040FFF7CABE10B5D0F8C6
:10561000C002FCF708F8BDE81040FFF7C1BE70B546
:105620000022044640231146FFF7E4FF40260125EF
:10563000C4F864613346002280212046C4F85851E2
:10564000FFF7D8FF6662A56184F89C520020C4F879
:1056500094026060C4F8A402D4F8B80228B1D4F867
:10566000B4020021426820469047002070BD90F8A7
:105670009C12042903D190F89D1280F89C120020FE
:10568000704710B590F89C12032904D1D0F8B412D9
:10569000C96901B18847002010BD0174002070471E
:1056A00010B5D0F8C002FCF774F9BDE81040FFF760
:1056B00077BE70B5044600F52A70054600F04AF83A
:1056C0000120C4F89402B4F8AE02C4F8980294F829
:1056D000A80210F01F010AD001290DD0022910D014
:1056E00000F08001204600F011F8002070BD29462E
:1056F000204600F09EF8F8E72946204600F0CAF957
:10570000F3E72946204600F01DF9EEE710B5D0F882
:10571000C002FBF79FFFBDE81040FFF741BE10B588
:10572000D0F8C002FCF750F9BDE81040FFF738BED2
:1057300090F89C1280F89D12042180F89C120020A1
:10574000704710B5D0F8C002FBF7B9FFBDE81040B4
:10575000FFF726BE0A7802704A7842708A78CB78C2
:1057600002EB032242800A794B7902EB032282800A
:105770008A79C97902EB0121C18070470246002075
:1057800011B1C2F8B41270470220704710B5D0F8BA
:10579000B42202241AB11268904700B900242046AE
:1057A00010BD000070B50E461E4D89780446297064
:1057B000012931D894F89C0202280BD003280FD07D
:1057C00031462046FFF7A2FC29782046BDE870400C
:1057D000FFF785BCD9B10320616084F89C0209E021
:1057E00071B16068884212D0C1B22046FFF777FCE1
:1057F000297861602046FFF7C9FF02280CD006E037
:10580000022084F89C0220466160FFF768FC204675
:10581000BDE87040FFF7ACBC31462046BDE87040A3
:10582000FFF774BCEC00002010B5FFF778FF0020F4
:1058300010BD2DE9F0410A78002612F0600208D070
:10584000202A01D0402A70D1D0F8B4229268904723
:105850006DE04B78002201250A2B66D2DFE803F0C9
:10586000405D6557650805652C29FFF701FD5EE081
:1058700004468888D8B9C888C8B94888802816D20C
:1058800000F07F0794F89C02032810D084F89E72E1
:1058900039462046FFF704FF2046FFF769FC1FB199
:1058A000022084F89C0242E084F89C523FE02046AB
:1058B0003BE0FFF777FF3AE0CB88012B35D190F83A
:1058C0009C32012B04D0022B02D0032B2DD104E0FB
:1058D0008260012200F1080116E00122011D13E09F
:1058E00090F89C22012A03D0022A01D0032A1CD15D
:1058F000CA88022A19D1C560D0F8A41209B10321BF
:10590000C160022200F10C01FFF725FC0FE049887D
:1059100001290CD1C0F8A45211E090F89C32012B5F
:1059200008D0022B06D0032B04D0FFF7EFFB304644
:10593000BDE8F08149880129F9D1C0F8A422FFF718
:1059400017FCF4E72DE9F0410A46044610780027D9
:10595000097910F060030AD0202B01D0402B50D1E0
:10596000D4F8B40211468368204698478FE0C0F30C
:105970004110012806D05078D0B301282AD003283E
:105980003FD107E0D4F8B402114683682046BDE851
:10599000F041184794F89C02022802D0032872D1E3
:1059A0000AE071B380296ED02046FFF7AFFE802158
:1059B0002046FFF7ABFE6AE0508838B931B1802944
:1059C00004D0D08810B92046FFF7A0FE2046FFF78C
:1059D000CFFB5CE094F89C020228E2D0032852D16D
:1059E000508898BB4806F1D02046FFF7FAFCEDE757
:1059F000FFE794F89C020026022803D0032842D136
:105A000012E040E009B180293DD1080601F07F0095
:105A100000EB800004EB800101D5143101E001F5B9
:105A2000AA7102220E602AE0080601F00F0000EBC6
:105A3000800004EB80000AD5806920B301F07F006C
:105A400000EB800004EB800514350BE01FE0D0F87C
:105A50005801C0B101F07F0000EB800004EB80052D
:105A600005F5AA7541B1802906D02046FFF7B4FD9F
:105A700010B10120286000E02E6002222946204655
:105A8000FFF769FB03E011462046FFF73FFB38466E
:105A9000BDE8F08170B5054608780C4610F060004E
:105AA00003D0202801D0402816D195F89C02012867
:105AB00003D0022801D003280ED1207901280BD869
:105AC000D5F8B402826828469047E188014306D1A0
:105AD0002846FFF74DFB02E02846FFF717FB0020A2
